:020000040800F2
:10000000A80B0020C901000851090008E3060008F8
:100010004D090008F50400083B130008000000002B
:10002000000000000000000000000000C50D0008F6
:100030000905000800000000290D0008D90E00087D
:10004000E3010008E3010008E3010008E301000800
:10005000E3010008E3010008E3010008E3010008F0
:10006000E3010008E3010008E3010008E3010008E0
:10007000E3010008E3010008E3010008E3010008D0
:10008000E3010008E3010008E3010008E3010008C0
:10009000E3010008E3010008E3010008E3010008B0
:1000A000E3010008E3010008E3010008E3010008A0
:1000B000E3010008E30100083D0F0008E301000828
:1000C000E3010008E3010008E3010008E301000880
:1000D000E301000855120008E3010008E3010008ED
:1000E000E3010008E3010008E301000800F002F862
:1000F00000F05AF80AA090E8000C82448344AAF168
:100100000107DA4501D100F04FF8AFF2090EBAE865
:100110000F0013F0010F18BFFB1A43F0010318473B
:100120002C2500004C2500000A444FF0000C10F86C
:10013000013B13F0070408BF10F8014B1D1108BF65
:1001400010F8015B641E05D010F8016B641E01F805
:10015000016BF9D113F0080F1EBF10F8014BAD1C55
:100160000C1B09D16D1E58BF01F801CBFAD505E073
:1001700014F8016B01F8016B6D1EF9D59142D6D3CD
:10018000704700000023002400250026103A28BFF5
:1001900078C1FBD8520728BF30C148BF0B607047F9
:1001A0001FB51FBD10B510BD00F033F81146FFF7A5
:1001B000F7FF01F0A3F900F051F803B4FFF7F2FFE5
:1001C00003BC01F017F900000948804709480047BF
:1001D000FEE7FEE7FEE7FEE7FEE7FEE7FEE7FEE7F7
:1001E000FEE7FEE704480549054A064B7047000054
:1001F000DD0E0008ED000008A8050020A80B002077
:10020000A8070020A8070020704770477047704774
:100210007047754600F02CF8AE4605006946534617
:1002200020F00700854618B020B5FFF7DBFFBDE8DA
:1002300020404FF000064FF000074FF000084FF04D
:10024000000B21F00701AC46ACE8C009ACE8C009DE
:10025000ACE8C009ACE8C0098D46704710B504464B
:10026000AFF300802046BDE81040FFF7A6BF0000B6
:10027000004870474405002021B1826842F0010225
:10028000826003E0826822F0010282607047000011
:1002900010B504461248844208D10121401500F0EF
:1002A00081FD0021601500F07DFD17E00D488442BE
:1002B00008D10121001500F075FD0021201500F086
:1002C00071FD0BE00848844208D10121C80300F009
:1002D00069FD00214FF4004000F064FD10BD0000F6
:1002E0000024014000280140003C0140014600205C
:1002F0008A6802F004020AB1012000E00020704781
:100300000146C86C80B270470246002013680B405B
:100310000BB1012000E000207047014600208A68F0
:1003200002F008020AB1012000E00020704700003E
:1003300030B502460020002350680F4C20400D7954
:100340000C6844EA05242043506090680B4C204020
:10035000D1E902542C434D7944EA4504204390608E
:10036000D06A20F470000C7C641EE4B2234340EA9F
:100370000350D06230BD0000FFFEF0FFFDF7F1FF3B
:10038000F0B504460D4600200021092D11DDE0687E
:10039000A5F10A0606EB4607072606FA07F1884389
:1003A000A5F10A0606EB460603FA06F10843E060EB
:1003B0000CE0206905EB4507072606FA07F188439C
:1003C00005EB450603FA06F108432061072A0FDA18
:1003D000606B561E06EB86071F2606FA07F1884358
:1003E000561E06EB860605FA06F10843606322E016
:1003F0000D2A0FDA206BD61F06EB86071F2606FA9A
:1004000007F18843D61F06EB860605FA06F1084376
:10041000206310E0E06AA2F10D0606EB86071F26B6
:1004200006FA07F18843A2F10D0606EB860605FAE7
:1004300006F10843E062F0BD816841F00801816087
:10044000704721B1826842F4A002826003E08268B2
:1004500022F4A00282607047816841F0040181604B
:100460007047000000B587B001214FF4027000F022
:1004700089FC4FF4804000F059FC00208DF81B00EF
:100480000120ADF8180006A9184800F03EF81848F9
:10049000FFF7FEFE01208DF80900002004904FF4C4
:1004A000602003900020019001208DF814000020AE
:1004B0008DF8080001A90E48FFF73AFF01210C480A
:1004C000FFF7DAFE0A48FFF7B7FF00BF0848FFF75B
:1004D00024FF0028FAD10648FFF7BEFF00BF0448FA
:1004E000FFF704FF0028FAD107B000BD000C01405F
:1004F0000024014000BFFEE710B50021014800F0D4
:1005000037FD10BD0008004070472DE9F04102465C
:1005100000250026002000230024002791F803C0B6
:100520000CF00F0591F803C00CF0100CBCF1000F9B
:1005300003D091F802C04CEA050591F800C0BCF167
:10054000000F31D0146800202BE04FF0010C0CFAA2
:1005500000F3B1F800C00CEA03069E4220D18300EC
:100560004FF00F0C0CFA03F7BC4305FA03FC4CEAFE
:10057000040491F803C0BCF1280F06D14FF0010C20
:100580000CFA00FCC2F814C00AE091F803C0BCF1F8
:10059000480F05D14FF0010C0CFA00FCC2F810C056
:1005A000401C0828D1D31460B1F800C0BCF1FF0F83
:1005B00034DD546800202EE000F1080C4FF00108F3
:1005C00008FA0CF3B1F800C00CEA03069E4221D1F0
:1005D00083004FF00F0C0CFA03F7BC4305FA03FC41
:1005E0004CEA040491F803C0BCF1280F05D100F1D6
:1005F000080C08FA0CF8C2F8148091F803C0BCF19A
:10060000480F07D100F1080C4FF0010808FA0CF868
:10061000C2F81080401C0828CED35460BDE8F08199
:10062000416170470161704710B500BF09480088FB
:100630004FF47A7100FB01F4074800F099FD04447F
:100640000020054924310880322000F0F7FE2046C2
:1006500010BD00006C0400200008004010B50446E6
:1006600000231A4621461248FFF78AFE0023012282
:1006700021460F48FFF784FE0023082221460C483C
:10068000FFF77EFE0023092221460948FFF778FE86
:1006900001210748FFF7D5FE00BF02210448FFF7FC
:1006A00033FE0028F9D00248FFF72AFE10BD0000F3
:1006B000002401402DE9F04107460C4600250026A4
:1006C00008E03846FFF7CAFF0544052000F0B6FEF3
:1006D000701CC6B2A642F4DBB5FBF4F080B2BDE8F4
:1006E000F08100BFFEE700002DE9F84F4FF0000A4F
:1006F0000024A346A14631E00120214908601420CE
:1007000000F0C2FE00201F49C1F89C0100BF1C4838
:10071000843800680028FAD000F0F4FA641C00BFA6
:100720001748843800680128FAD0FFF7E5FEFFF784
:100730007BFF8246504601F0A9FA009001F0C4F90F
:1007400007460022104B01F013F8054600F0DEFFCB
:1007500083464946584601F0E3F98146052CCBD142
:10076000484601F0B1F907460022084B01F000F8B5
:10077000054600F0CBFF83465846BDE8F88F0000E1
:100780009C8121420080214200004D400000144025
:100790001FB50121082000F0F5FA8020ADF8000017
:1007A00003208DF8020010208DF8030069461E48D2
:1007B000FFF7ABFE80211C48FFF732FF4020ADF869
:1007C000000004208DF8030069461748FFF79DFEDE
:1007D00040211548FFF724FF0121042000F0B2FA60
:1007E000124800F0D1FB40F2E730ADF80800472096
:1007F000ADF804000020ADF80A00ADF8060001A92C
:100800000A4800F0D5FC0121084800F0ABFB0122AA
:100810001146064800F0C0FC00F05CFE00210348D1
:1008200000F0A6FB1FBD0000000C014000080040C6
:1008300010B54FF400710948FFF7F4FE4FF48071D2
:100840000648FFF7EFFE4FF480710448FFF7E8FE1B
:100850004FF400710148FFF7E3FE10BD000C0140AA
:1008600010B54FF400710748FFF7DCFE4FF48071BC
:100870000448FFF7D5FE4FF480710248FFF7D2FE1F
:1008800010BD0000000C014010B54FF40071044889
:10089000FFF7C8FE4FF400710148FFF7C1FE10BD1D
:1008A000000C014008B50121082000F06BFA4FF45C
:1008B0008050ADF8000048208DF8030069461248CA
:1008C000FFF723FE4FF40050ADF8000048208DF8EC
:1008D000030069460C48FFF718FE4FF48040ADF85E
:1008E000000048208DF8030069460748FFF70DFE19
:1008F0004FF40040ADF8000048208DF80300694631
:100900000148FFF702FE08BD000C014008B50121B7
:10091000102000F037FA4FF44040ADF800001020EE
:100920008DF8030003208DF8020069460648FFF7A2
:10093000ECFD4FF480410448FFF774FE4FF4004192
:100940000148FFF76DFE08BD0010014000BFFEE743
:100950007047000070B5002100230F22C47804B353
:10096000154C246804F4E064C4F5E064210AC1F184
:100970000403CA40447804FA03F184781440214304
:1009800009010E4C0678A155047804F01F050124D6
:10099000AC4005786D11AD0005F1E025C5F80041CA
:1009A00009E0047804F01F050124AC40044D0678EA
:1009B000761145F8264070BD0CED00E000E400E043
:1009C00080E100E002490143024A116070470000E3
:1009D0000000FA050CED00E070B5002418E004F109
:1009E000B000002100F082F90021084600F07EF9F5
:1009F0000021102000F07AF9002505E001210020F7
:100A000000F074F9681CC5B2802DF7DB601CC4B21D
:100A1000082CE4DB70BD000008B50121082000F0BF
:100A2000B1F94FF44070ADF8000010208DF80300CC
:100A300003208DF8020069463C48FFF766FD4FF43D
:100A400040713A48FFF7EEFD4FF4487000F0F6FCB5
:100A50000021AE2000F04AF90021084600F046F9D6
:100A60000021102000F042F90021402000F03EF962
:100A70000021B02000F03AF90021812000F036F981
:100A80000021FF2000F032F90021A12000F02EF912
:100A90000021A62000F02AF90021A82000F026F964
:100AA00000213F2000F022F90021C82000F01EF9AB
:100AB0000021D32000F01AF90021084600F016F9B1
:100AC0000021D52000F012F90021802000F00EF95D
:100AD0000021D82000F00AF90021052000F006F9D5
:100AE0000021D92000F002F90021F12000F0FEF8E9
:100AF0000021DA2000F0FAF80021122000F0F6F8C8
:100B00000021DB2000F0F2F80021302000F0EEF8A8
:100B100000218D2000F0EAF80021142000F0E6F812
:100B20000021AF2000F0E2F808BD0000000C0140F9
:100B300070B504460D4605F1B000002100F0D6F86E
:100B4000102141EA1410002100F0D0F804F00F0049
:100B5000002100F0CBF870BD2DE9F04180460E4633
:100B60001546002731464046FFF7E2FF00240AE021
:100B7000124A02EB8511085D012100F0B7F8781CDC
:100B8000C7B2601CC4B2102CF2DB701CC1B240466C
:100B9000FFF7CEFF00240CE06900491C074A02EB76
:100BA0004111085D012100F0A1F8781CC7B2601C5A
:100BB000C4B2102CF0DBBDE8F08100002C00002056
:100BC0002DE9F04707460E46904699460025002439
:100BD000A8F12000C5B27F2F02DD0027B01CC6B2ED
:100BE000B9F1100F24D131463846FFF7A1FF002498
:100BF00008E004EB0511194A505C012100F076F879
:100C0000601CC4B2082CF4DB701CC1B23846FFF77C
:100C10008FFF002409E004EB051108310F4A505CF6
:100C2000012100F063F8601CC4B2082CF3DB12E071
:100C300031463846FFF77CFF00240AE005EB45010A
:100C4000074A02EB4101085D012100F04FF8601CEA
:100C5000C4B2062CF2DBBDE8F08700005A20000881
:100C6000321E00082DE9FF5F074691461E460E9D85
:100C70004FF0000A002435E0301B401EC1B20A20AC
:100C800000F038FDB9FBF0F00A21B0FBF1F201FBF6
:100C90001208BAF1000F14D1701EA04211DDB8F194
:100CA000000F0CD1AB4605EBDB71491001FB047161
:100CB000C8B22B4620220199FFF782FF10E04FF0C7
:100CC000010AAB4605EBDB71491001FB0471C8B2A8
:100CD00008F13001CAB22B460199FFF771FF00BF3E
:100CE000601CC4B2B442C7DBBDE8FF9F70B50446C8
:100CF0000D461DB1E0B200F067FB02E0E0B200F08B
:100D00004DFB70BD10B50021054800F04EFA0020E3
:100D1000044908800121024800F02AF910BD0000B2
:100D2000000800406C0400207047000001460020CD
:100D3000034A506820F44040084350607047000068
:100D40000010024029B1064AD2690243044BDA611D
:100D500004E0034AD2698243014BDA617047000024
:100D60000010024029B1064A12690243044B1A617D
:100D700004E0034A12698243014B1A617047000084
:100D80000010024029B1064A92690243044B9A615D
:100D900004E0034A92698243014B9A617047000064
:100DA0000010024029B1064AD2680243044BDA60BF
:100DB00004E0034AD2688243014BDA6070470000C6
:100DC00000100240704710B500F002F810BD00009E
:100DD0000CB50020019000903348006840F480304A
:100DE0003149086000BF3048006800F400300090CE
:100DF0000198401C0190009818B90198B0F5A06FB7
:100E0000F1D12948006800F4003010B101200090B1
:100E100001E0002000900098012843D12348006899
:100E200040F01000214908600846006820F00300E7
:100E300008600846006840F0020008601A484068F0
:100E4000194948600846406848600846406840F4D0
:100E5000806048600846406820F47C10486008467E
:100E6000406840F4E81048600846006840F0807030
:100E7000086000BF0C48006800F000700028F9D03E
:100E80000948406820F00300074948600846406868
:100E900040F00200486000BF0348406800F00C00CA
:100EA0000828F9D10CBD00000010024000200240CB
:100EB000042808D14FF0E021096941F004014FF006
:100EC000E022116107E04FF0E021096921F00401FF
:100ED0004FF0E022116170477047000010B51348D1
:100EE000006840F001001149086008464068104958
:100EF00008400E494860084600680E4908400B4902
:100F000008600846006820F48020086008464068B1
:100F100020F4FE0048604FF41F008860FFF753FF85
:100F20004FF000600449086010BD0000001002404E
:100F30000000FFF8FFFFF6FE08ED00E010B501210C
:100F4000064800F018F940B10121044800F00DF8FE
:100F500003480088401C0249088010BD000800407A
:100F60006C040020CA4302827047CA430282704761
:100F700021B1028842F00102028004E002884FF6AB
:100F8000FE731A400280704710B5044668488442D8
:100F900008D10121C014FFF705FF0021E014FFF77D
:100FA00001FFC4E0B4F1804F08D101210846FFF7EA
:100FB000D9FE00210120FFF7D5FEB8E05D4884424C
:100FC00008D101210220FFF7CDFE00210220FFF70A
:100FD000C9FEACE05848844208D101210420FFF743
:100FE000C1FE00210420FFF7BDFEA0E0534884426B
:100FF00008D101210820FFF7B5FE00210820FFF7E6
:10100000B1FE94E04E48844208D101211020FFF740
:10101000A9FE00211020FFF7A5FE88E04948844280
:1010200008D101212020FFF79DFE00212020FFF79D
:1010300099FE7CE04448844208D101214014FFF726
:10104000B1FE00216014FFF7ADFE70E03F4884421E
:1010500009D10121C804FFF7A5FE00214FF40020AB
:10106000FFF7A0FE63E03A48844209D10121080558
:10107000FFF798FE00214FF48010FFF793FE56E033
:101080003448844209D101214805FFF78BFE002135
:101090004FF40010FFF786FE49E02F48844208D144
:1010A00001214020FFF75EFE00214020FFF75AFE9D
:1010B0003DE02A48844208D101218020FFF752FEFA
:1010C00000218020FFF74EFE31E02548844208D100
:1010D00001218015FFF746FE0021A015FFF742FE13
:1010E00025E02048844209D101210804FFF75AFE77
:1010F00000214FF48030FFF755FE18E01A48844273
:1011000009D101214804FFF74DFE00214FF40030C2
:10111000FFF748FE0BE01548844208D101218804FE
:10112000FFF740FE00214FF48020FFF73BFE10BD8B
:10113000002C01400004004000080040000C00406A
:10114000001000400014004000340140004C0140F9
:10115000005001400054014000180040001C0040B5
:101160000020004000400140004401400048014090
:101170000146888C704730B50246002000230024C9
:10118000158A05EA0103958905EA010413B10CB13A
:10119000012000E0002030BD1AB183890B43838118
:1011A00002E083898B43838170478184704700000C
:1011B000002202881D4B98420ED01D4B98420BD046
:1011C000B0F1804F08D01B4B984205D01A4B984283
:1011D00002D01A4B984204D14FF68F731A404B88B5
:1011E0001A43174B984207D0164B984204D04FF63B
:1011F000FF431A40CB881A4302808B8883850B8873
:1012000003850A4B98420BD0094B984208D00E4BED
:10121000984205D00D4B984202D00D4B984201D117
:101220000B7A03860123838270470000002C014063
:10123000003401400004004000080040000C004061
:1012400000100040001400400040014000440140F4
:101250000048014010B540F225511D4800F03EF80D
:1012600010B31B4800F064F8C4B21A48008800F4B8
:101270000040C8B91748008800F4804060B10A2CCB
:1012800003D000201349088020E01248008840F471
:1012900000401049088019E00D2C06D10D48008847
:1012A00040F480400B49088010E00A480088C0F3F1
:1012B0000D0009490C5407480088401C0549088066
:1012C00008460088C72801DD0020088010BD000006
:1012D00000380140780400207C04002070B50246EC
:1012E000002400230025002040F66A16B14200D1F8
:1012F00000BFC1F3421501F01F03012606FA03F3F4
:10130000012D02D19689334006E0022D02D1168AC2
:10131000334001E0968A33400C12012606FA04F4A9
:101320001688344013B10CB1012000E0002070BDDC
:1013300001468888C0F30800704700BFFEE7000040
:101340002DE9F04105462C464FF400711248FFF795
:1013500067F900261CE0274607F08007802F04D19C
:1013600079000D48FFF75EF904E04FF480710A48F8
:10137000FFF756F96006040E4FF400710648FFF7B8
:1013800051F94FF400710448FFF74AF9701CC6B2D6
:10139000082EE0DBBDE8F081000C014010B50446EA
:1013A000FFF746FA7820FFF7CBFFFFF76DFA002032
:1013B000FFF7C6FFFFF768FA2046FFF7C1FFFFF708
:1013C00063FAFFF74DFA10BD10B50446FFF730FA87
:1013D0007820FFF7B5FFFFF757FA4020FFF7B0FF7F
:1013E000FFF752FA2046FFF7ABFFFFF74DFAFFF782
:1013F00037FA10BD00BF704710B56FF00400FFF75B
:1014000057FD0A4800680A49B0FBF1F00949087025
:101410000846007800EB4001C1EBC0104FF6FF71A9
:1014200001EAC0000449088010BD00001800002037
:1014300000127A006E040020700400200146114A58
:1014400012884A434FF0E0235A6100229A611A46FB
:10145000126942F001021A6100BF4FF0E0221069E8
:1014600000F001021AB100F48032002AF5D04FF0EA
:10147000E022126922F001024FF0E0231A610022FB
:101480009A617047700400200146114A12784A435D
:101490004FF0E0235A6100229A611A46126942F025
:1014A00001021A6100BF4FF0E022106900F0010252
:1014B0001AB100F48032002AF5D04FF0E022126910
:1014C00022F001024FF0E0231A6100229A61704776
:1014D0006E04002008B54FF4A060FFF773FA1E20D9
:1014E0008DF8000000208DF801008DF80200012029
:1014F0008DF803006846FFF72DFA08BD08B5FFF721
:101500007BFFFFF703FAFFF787FAFFF765FAFFF7AC
:101510003FF9FEF7A7FFFFF7C5F9DBE00A21082036
:10152000FFF7C8F86C49086008460068282190FB5E
:10153000F1F0C0F16404204600F090FB67490860B8
:10154000002211461046FFF707FB01220021102060
:10155000FFF702FB022200212020FFF7FDFA032201
:1015600000213020FFF7F8FA5C48006800F056FBD5
:101570000446102002232246002100904620FFF757
:1015800071FB1020022300905548002102685A2068
:10159000FFF768FBFFF7A8F8524908600422022110
:1015A0000020FFF7D9FA052202211020FFF7D4FA14
:1015B0004C48006800F032FB04461020022322460B
:1015C000194600904620FFF74DFB102002230090A3
:1015D0004548194602685A20FFF744FB3F48006817
:1015E00000F000FB3E490968884207DD3D4800687D
:1015F00000F0F8FA3C490968884203DA00203B49C8
:10160000086002E00120394908603448006800F0B1
:10161000E9FA33490968884204DC01203349091D8D
:10162000086003E000203149091D08603048006867
:1016300078B900BF2E4800680028FBD02848006811
:10164000401C2749086008460068632801DD6320C4
:1016500008602748001D006880B900BF2448001DAD
:1016600000680028FAD01E480068401E1C49086027
:1016700008460068012801DA012008601C4808308B
:10168000006888B900BF1A48083000680028FAD0FE
:1016900015480068401C1449086011480068632818
:1016A00002DD63200E49086011480C30006888B9DB
:1016B00000BF0F480C3000680028FAD00A480068C4
:1016C000401E0949086006480068012802DA012026
:1016D0000349086022E70000040000200800002001
:1016E0000C0000200000002010000020B801224261
:1016F0003081214210B50246012000E050430B1E0C
:10170000A1F10104E1B2F9D110BD000021F00042C5
:10171000A2F16052B2F5801F01F0004328BFD2F160
:101720007F6C0BD95FEA001C43EAC20242EB5070A7
:1017300018BF704728BF20F001007047B2F5801F26
:10174000BCBF184670474FEA410C1CF5001F02D27F
:10175000084600F0F4BA70B500F062F900000089A4
:10176000FFF7F6BF4FF00040A0F580007047000083
:101770002DE9C04130B4DFF8A0C23CEA111418BF13
:101780003CEA131400F0EC8081EA03051CEA111412
:1017900044EAD57418BF1CEA131500F0C780A4EB07
:1017A00005044FF0004545EAC12145EAC32341EA5B
:1017B000505143EA525304F17F74994204F50034C6
:1017C0004FEAC0204FEAC22208BF904200F09C803E
:1017D0004FEA13650FF24016765D4FEA134506FB9C
:1017E00005F7C7F1807706FB07F74FEAD737A7FB66
:1017F00003687642C8F58038A7FB06CE38BFA8F14B
:10180000010807FB08E64FF0000EA6FB028CE6FB82
:1018100003CEDCF1000CCEF1004E38BFAEF1010E6C
:10182000A6FB0C584FF000074FF00005E6FB0E87B3
:10183000A1FB08C6A0FB07CE16EB0E0645F100057E
:10184000E1FB076515F1E04E7EBFA4F580345FEA49
:1018500046066D4116F1800745F100054FEA17274E
:101860004FEA066647EA0567A6F1DE46B6F1805FF5
:101870004FEA15251FD9384624F0010C05EBC47139
:10188000BCF1FE6F01EB0C1102D8F0BCBDE8008189
:1018900024425CBF01F5801E9EEAC47F02D4F0BCE6
:1018A000BDE80081244238D4F0BCA1F1C041BDE8BC
:1018B000004100F003B94FEAD22242EA43524FEA14
:1018C000D323A7FB02864FEAD02040EA415007FB12
:1018D00003661EEA0E0F4FEAD12105FB026658BFD0
:1018E000A6EB0056B6EB00564FEA520E4EEAC37E08
:1018F00018EB0E0E56EB530EBDD518EB02085E41E9
:101900007F1C55F10005B6E74FF480154FF0000736
:101910004FF000064FF00008ADE7F0BC4FF00000BC
:1019200001F1C04101F00041BDE8008111EA0C1F46
:101930000CEA131500D00CE013EA0C1F00F0258010
:101940004FF00000F0BC81EA030101F00041BDE866
:101950000081F0BCBDE8004181EA030100F0AEB8AF
:10196000F0BCBDE8004170B500F05AF8097EFC3EBD
:1019700000F007B881EA03014FF0000001F00041D8
:10198000704781EA030100F099B8F0BCBDE800415E
:101990004FF0000021497047FFFDFBF9F7F5F4F225
:1019A000F0EEEDEBE9E8E6E4E3E1E0DEDDDBDAD8FA
:1019B000D7D5D4D3D1D0CFCDCCCBCAC8C7C6C5C458
:1019C000C2C1C0BFBEBDBCBBBAB9B8B7B6B5B4B36F
:1019D000B2B1B0AFAEADACABAAA9A8A8A7A6A5A45A
:1019E000A3A3A2A1A09F9F9E9D9C9C9B9A9999981E
:1019F0009797969595949393929191908F8F8E8EC1
:101A00008D8C8C8B8B8A898988888787868585844D
:101A100084838382828181800000FF070000F87F39
:101A20000EF1020E2EF0030E5EF8046B364205D462
:101A3000012A43EB030515F5001F12D8012841EBDD
:101A4000010C1CF5001F0CD80ED14FEAD17C15F506
:101A5000001F0CEB4C0C0CF1020C08BF4CEBD37CC0
:101A600004E04FF0080C01E04FEAD37C0CEB4C058E
:101A700026FA05F606F00706B6F1040C06D20EEBC0
:101A8000860CBDE870404CF0010C6047DFE80CF0BC
:101A9000090B02024FF000414FF00000A1F50021B8
:101AA00070BD19461046012851EB010418BFD4F54A
:101AB000001484BF002001F0004170BD0808A0F5AB
:101AC00000114FEA3101704743004FEAD30C4FEA4F
:101AD0003C0C43401FBF40070CF1605113F0FE4F18
:101AE00070471CF0006F03D100200CF000417047DC
:101AF0000CF0004343EA507010B540EACC0000F00F
:101B0000D8F800BF000000924FEA0001FFF7D6BFEF
:101B10004FF000414FF00000A1F500217047000098
:101B200090EA010F48BF81F0004100F11481421A90
:101B30003CBF801A89184FEAD0524FF07F4C1CEA04
:101B4000410FA2EBD15318BF9CEA026F00F03B801B
:101B50004FF0004C4CEA00204CEA012121FA03FC32
:101B600010EB0C0C1ED202F1FF325FEA1C2040EB9E
:101B7000C25038BF70471CF07F0F4FEA400C18BFAF
:101B8000BCF17F4F38BF7047C3F12003994008BFB5
:101B900020F00100BCF17F4F38BF7047A0F1C0407A
:101BA00000F0CDB84FEA3C00000A40EBC25028BF1D
:101BB0001CF0FF0F4FEA400CE6D018BFBCF17F4F7E
:101BC00038BF7047EAE79CEA026F05D010EA5C0F65
:101BD00008BF00F00040704710B500F06AF800BF81
:101BE00064FBBE3E41000B0ED3F19E0208D950F4B7
:101BF00000034FEA032323FA02F048BF4042704734
:101C000010B500F056F800BF4992248000207047BC
:101C10006FF0004282EA200070470000C10DD1F150
:101C20009E0206DB4FEA002343F0004323FA02F052
:101C30007047004207D54FEA4001B1F1FE4F02D292
:101C40004FF00000704710B500F033F8499224803F
:101C5000002070476FEA20007047000010F000413C
:101C600048BF4042B0FA80F310FA03F2C3F19D037B
:101C70000BD051EAC35101EB1220530638BF704715
:101C800000F1010008BF20F001007047B0FA80F3B6
:101C900010FA03F2C3F19D030AD0D90501EB12201B
:101CA000530638BF704700F1010008BF20F0010063
:101CB00070470EF1020E2EF0030E5EF8044B244224
:101CC00004D44FEA4102B2F17F4F11D84FEA4003EA
:101CD000B3F17F4F0CD80ED14FEAD07CB2F17F4FD9
:101CE0000CEB4C0C0CF1020C08BF4CEBD17C04E06B
:101CF0004FF0080C01E04FEAD17C0CEB4C0324FAC6
:101D000003F404F00704B4F1040C06D20EEB840CC7
:101D1000BDE810404CF0010C6047DFE80CF007080C
:101D200002024FF00040A0F5800010BD08464200BE
:101D300018BFD2F1807288BF00F0004010BDFF21B3
:101D400041EAD050C005704790EA010F48BF81F0CA
:101D500000413FF5ECAE421A04D882F00042A0EBFD
:101D6000020011444FEAD0524FF07F4C1CEA410F61
:101D7000A2EBD15318BF9CEA026F4AD04FF0004C3F
:101D80004CEA00204CEA012121FA03FCB0EB0C0CD8
:101D90000FD412F0FE0F36D05FEA4C001DD50012B2
:101DA00040EBC25038BF70471CF03F0F18BF704760
:101DB0000BE0A2F101025FEA1C2040EBC25038BFE9
:101DC00070471CF07F0F18BF7047C3F12003994084
:101DD00014BF401E20F00100704780084FEA122314
:101DE00008BF7047B0FA80FCA2EB0C02CCF1280CC3
:101DF00060FA0CF093EA122F04BF00EBC250704758
:101E00004FEAC3707047130A5FEADC1008BF7047DF
:101E1000F6E79CEA026F04D010EA5C0F08BF0020CE
:101E2000704710B5FFF745FF40DFF63E81F00040F8
:101E300070470000000000000000002F00000000BC
:101E40000700070000147F147F1400242A7F2A1241
:101E50000062640813230036495522500000050330
:101E6000000000001C224100000041221C00001460
:101E7000083E08140008083E0808000000A06000A2
:101E80000008080808080000606000000020100832
:101E90000402003E5149453E0000427F400000429E
:101EA00061514946002141454B31001814127F1001
:101EB000002745454539003C4A4949300001710930
:101EC000050300364949493600064949291E0000E4
:101ED000363600000000563600000008142241008B
:101EE00000141414141400004122140800020151BB
:101EF000090600324959513E007C1211127C007FC4
:101F000049494936003E41414122007F4141221C5E
:101F1000007F49494941007F09090901003E4149C3
:101F2000497A007F0808087F0000417F41000020B7
:101F300040413F01007F08142241007F4040404063
:101F4000007F020C027F007F0408107F003E4141A9
:101F5000413E007F09090906003E4151215E007F94
:101F6000091929460046494949310001017F01010B
:101F7000003F4040403F001F2040201F003F4038AE
:101F8000403F0063140814630007087008070061ED
:101F90005149454300007F41410000552A552A55CB
:101FA000000041417F000004020102040040404063
:101FB0004040000001020400002054545478007F87
:101FC0004844443800384444442000384444487F5E
:101FD00000385454541800087E0901020018A4A4C3
:101FE000A47C007F080404780000447D4000004089
:101FF00080847D00007F102844000000417F400065
:10200000007C04180478007C0804047800384444F8
:10201000443800FC242424180018242418FC007CD4
:102020000804040800485454542000043F4440204D
:10203000003C4040207C001C2040201C003C4030E4
:10204000403C004428102844001CA0A0A07C004470
:1020500064544C44141414141414000000000000C0
:1020600000000000000000000000000000F8000078
:102070000000000000333000000000100C06100CBF
:102080000600000000000000000040C07840C0785A
:102090004000043F04043F040400007088FC083042
:1020A0000000001820FF211E0000F008F000E018DA
:1020B000000000211C031E211E0000F00888700093
:1020C00000001E2123241927211010160E000000E5
:1020D00000000000000000000000000000E0180404
:1020E0000200000000071820400000020418E00071
:1020F00000000040201807000000404080F08040B1
:1021000040000202010F01020200000000F0000086
:1021100000000101011F010101000000000000009A
:10212000000080B07000000000000000000000000F
:102130000000000101010101010100000000000098
:10214000000000303000000000000000000080604F
:102150001804006018060100000000E010080810D4
:10216000E000000F102020100F00001010F80000F9
:1021700000000020203F2020000000700808088890
:102180007000003028242221300000300888884860
:1021900030000018202020110E000000C02010F890
:1021A000000000070424243F240000F80888880861
:1021B00008000019212020110E0000E01088881866
:1021C0000000000F112020110E0000380808C83848
:1021D00008000000003F0000000000708808088828
:1021E0007000001C222121221C0000E010080810B1
:1021F000E0000000312222110F00000000C0C000EA
:1022000000000000003030000000000000800000EE
:1022100000000000806000000000000080402010EE
:1022200008000001020408102000404040404040E7
:10223000400004040404040404000008102040804A
:10224000000000201008040201000070480808087F
:10225000F0000000003036010000C030C828E8104F
:10226000E0000718272423140B000000C038E0000A
:102270000000203C23020227382008F88888887054
:102280000000203F202020110E00C0300808080860
:102290003800071820202010080008F80808081047
:1022A000E000203F202020100F0008F88888E80870
:1022B0001000203F20202320180008F88888E80814
:1022C0001000203F200003000000C030080808383C
:1022D000000007182020221E020008F8080000084D
:1022E000F808203F210101213F20000808F80808D4
:1022F00000000020203F2020000000000808F8080F
:102300000800C08080807F00000008F888C028187E
:102310000800203F20012638200008F808000000AF
:102320000000203F20202020300008F8F800F8F8B6
:102330000800203F003F003F200008F830C00008A0
:10234000F808203F200007183F00E0100808081098
:10235000E0000F10202020100F0008F808080808DF
:10236000F000203F210101010000E01008080810E2
:10237000E0000F18242438504F0008F88888888817
:102380007000203F2000030C3020007088080808EF
:1023900038000038202121221C00180808F80808FD
:1023A00018000000203F2000000008F80800000886
:1023B000F808001F202020201F000878880000C88F
:1023C0003808000007380E010000F80800F800087F
:1023D000F800033C0700073C030008186880806889
:1023E000180820302C03032C30200838C800C838C7
:1023F00008000000203F2000000010080808C8382E
:1024000008002038262120201800000000FE0202CB
:1024100002000000007F40404000000C30C000007F
:102420000000000000010638C00000020202FE00A9
:102430000000004040407F00000000000402020253
:102440000400000000000000000000000000000088
:102450000000808080808080808000020204000074
:10246000000000000000000000000000808080806C
:1024700000000019242222223F2008F8008080005A
:102480000000003F112020110E000000008080801D
:102490000000000E11202020110000000080808824
:1024A000F800000E112020103F2000008080808066
:1024B0000000001F222222221300008080F0888862
:1024C00088180020203F20200000000080808080AD
:1024D0008000006B94949493600008F800808080E2
:1024E0000000203F210000203F200080989800003D
:1024F00000000020203F202000000000008098986D
:10250000000000C08080807F000008F8000080800C
:102510008000203F24022D302000000808F8000031
:1025200000000020203F20200000808080808080EC
:102530008000203F20003F20003F8080008080807E
:102540000000203F210000203F200000808080808C
:102550000000001F202020201F00808000808000BD
:10256000000080FFA12020110E000000008080806C
:102570008000000E112020A0FF80808080008080DD
:10258000800020203F21200001000000808080800A
:1025900080000033242424241900008080E08080FF
:1025A00000000000001F202000008080000000804C
:1025B0008000001F202020103F20808080000080AD
:1025C000808000010E3008060100808000800080BD
:1025D00080800F300C030C300F0000808000808062
:1025E00080000020312E0E3120008080800000808D
:1025F000808080818E70180601000080808080803D
:1026000080000021302C2221300000000000807C5E
:10261000020200000000003F404000000000FF00F8
:10262000000000000000FF0000000002027C8000AB
:1026300000000040403F00000000000601010202CF
:102640000404000000000000000000006C260008E8
:10265000000000207C040000280100083828000841
:102660007C0400202C07000084010008C15A2804C3
:102670005184A24A04001811010203040607080944
:102680004040424458C0407F40C0504846404037D8
:102690008080402018071B3F400102127816FE423E
:1026A0004242FE00081242A29E82A2C2BE27806F52
:1026B000080828CF4B2FC80801101602E222223E3C
:1026C000000A12809E9292F292929E80000F134313
:1026D00082423E40474444447F444454E72809FC36
:1026E000242424FC2526240879DF91080F1140308A
:1026F0008F80844C55252525554C8080601C3E22BA
:10270000E2812BFE22010311E20217203F201F115C
:1027100011197D190103114740180D040404F484B4
:10272000D4A5A6A4D484F40C0112000E13FE020258
:10273000123A1613121A3242827E000D144042449D
:102740005840407F40405048C63A407A3901021311
:10275000FF180D0808E8292E28E80808C80C0B0601
:10276000011326FF0949897F1C0F40800601132AA7
:1027700024011AFCFE031323222A02013C42827F19
:10278000080B1102029F1AC49A000912401010FF90
:10279000101010F0000F15103C131014B840300E3C
:1027A000014080403F000A17F8888C8A8988888811
:1027B000F84AFFFE031444FF093F802C2018C75D30
:1027C0002AFC050212041D04040407042B04FF055F
:1027D0000A100421001011407C407F484848201016
:1027E0000C23CC102040080F117F4844432428FFBD
:1027F00001091121D10D03A0080D1210D0FF901472
:10280000E4AFA4A4A4AFE480120312FF080B118963
:102810004B2A1A0E1A2A4B8880402A900108091167
:102820001010FF1010111610E01760203F1010104C
:082830001B030C9F0261F8007C
:04000005080000ED02
:00000001FF
